:100000000C9499000C94F3030C94CC030C94D1053C
:100010000C94D1050C94D1050C94C1000C94C10032
:100020000C94C1000C94C1000C94C1000C94C1004C
:100030000C94C1000C94C1000C94C1000C94C1003C
:100040000C947B0F0C94C1000C948F040C946904E5
:100050000C94C1000C94C1000C94C1000C94C1001C
:100060000C9461060C94C1004F4B00415445300084
:100070004F4B0041544530004F4B004154004F4B13
:10008000004154004F4B0041540000000000240088
:1000900027002A00000000080002010000030407F6
:1000A00000000000000000002B43504D533A202276
:1000B000534D222C0041542B43504D533F004F4B86
:1000C0000041542B434D47463D310041542B43439F
:1000D0004C4B3F002B435245473A200041542B43A1
:1000E0005245473F00464F4E4100464F4E416E65D8
:1000F000740000000000250028002B000000000014
:100100002300260029000404040404040404020259
:100110000202020203030303030301020408102086
:100120004080010204081020010204081020A019D8
:10013000F51111241FBECFEFD8E0DEBFCDBF12E016
:10014000A0E0B1E0E6E4F6E402C005900D92A2372B
:10015000B107D9F725E0A2E7B2E001C01D92A43AA9
:10016000B207E1F710E0C8E9D0E004C02197FE0132
:100170000E94451FC739D107C9F70E94FF110C948F
:1001800016230C9400000895CF92DF92EF92FF9215
:100190000F931F93CF93DF936C017A018B01C0E023
:1001A000D0E0CE15DF0589F0D8016D918D01D60123
:1001B000ED91FC910190F081E02DC6010995892B0C
:1001C00011F47E0102C02196ECCFC701DF91CF91DF
:1001D0001F910F91FF90EF90DF90CF900895FC0159
:1001E000918D828D981761F0828DDF01A80FB11D6E
:1001F0005D968C91928D9F5F9F73928F90E0089592
:100200008FEF9FEF0895FC01918D828D981731F04B
:10021000828DE80FF11D858D90E008958FEF9FEF9F
:100220000895FC01918D228D892F90E0805C9F4F75
:10023000821B91098F73992708958CEB93E00E949C
:10024000110121E0892B09F420E0822F0895FC019F
:10025000848DDF01A80FB11DA35ABF4F2C91848D4F
:1002600090E001968F739927848FA689B7892C9384
:10027000A089B1898C9180648C93938D848D98131F
:1002800006C00288F389E02D80818F7D80830895E8
:10029000EF92FF920F931F93CF93DF93EC0181E0D6
:1002A000888F9B8D8C8D981305C0E889F989808192
:1002B00085FD24C0F62E0B8D10E00F5F1F4F0F73CE
:1002C0001127E02E8C8DE8120CC00FB607FCFACF78
:1002D000E889F989808185FFF5CFCE010E94270149
:1002E000F1CF8B8DFE01E80FF11DE35AFF4FF08235
:1002F0000B8FEA89FB898081806207C0EE89FF89C4
:100300006083E889F98980818064808381E090E05E
:10031000DF91CF911F910F91FF90EF900895CF93B0
:10032000DF93EC01888D8823C9F0EA89FB898081FD
:1003300085FD05C0A889B9898C9186FD0FC00FB6CF
:1003400007FCF5CF808185FFF2CFA889B9898C9110
:1003500085FFEDCFCE010E942701E7CFDF91CF913E
:10036000089580E090E0892B29F00E941D01811101
:100370000C9400000895982F92959F702AEF929FF9
:10038000800D112408952091FF0230910003281759
:10039000390771F49091FD028091FE02981741F0A7
:1003A000E091FD02F0E0E354FD4F808190E008957C
:1003B0008FEF9FEF089508951F93CF93DF93DC0194
:1003C0005C962D913C915D972115310539F481E0C2
:1003D00090E013969C938E9312973DC05196ED91A9
:1003E000FC91529750969C915097892F80951FB7FA
:1003F0005E964C915E9741FB772770F941FD6095C1
:10040000F8944081772311F0492B01C048234083A1
:10041000E9012197F1F748E0508160FF02C0592BB4
:1004200001C058235083E9012197F1F766954150A7
:1004300099F7772321F090818923808303C08081FD
:10044000982B90831FBF5C968D919C915D9701972F
:10045000F1F721E030E0C901DF91CF911F910895BC
:100460002091FF02309100032817390771F4809121
:10047000FE022091FD0290E0805C9F4F821B91095B
:1004800060E470E00E94161F089580E090E00895F7
:100490002091FF023091000328173907B9F4909199
:1004A000FD028091FE02981789F0E091FD02F0E0D4
:1004B000E354FD4F80812091FD0230E02F5F3F4FDC
:1004C0002F7333272093FD0290E008958FEF9FEF65
:1004D00008950895E0915C0480915B04E81730F47E
:1004E000F0E0ED5AFC4F808190E008958FEF9FEF90
:1004F000089590915C0480915B04981750F4E92F63
:10050000F0E0ED5AFC4F208130E09F5F90935C0457
:1005100002C02FEF3FEFC901089580915B0490E086
:1005200020915C04821B9109089585ED8093BC00A5
:100530008091BC0084FDFCCF1092990308954091F6
:100540009802262F30E0240F311D21323105DCF4D2
:10055000209199032430C9F4FC0180E090E08617D3
:1005600058F4309198022191DC01AA58BD4FA30F95
:10057000B11D2C930196F3CF80919802680F609380
:10058000980280E0089581E0089582E00895CF9276
:10059000DF92EF92FF920F931F93CF93DF937C0133
:1005A000262F972F8A0180919A03882391F0C62FD6
:1005B000D72F6E01C40ED51ECC15DD0571F06991E3
:1005C000D701ED91FC910190F081E02DC7010995D3
:1005D000F3CF642F822F0E949F02C801DF91CF9139
:1005E0001F910F91FF90EF90DF90CF900895CF93E0
:1005F000DF931F92CDB7DEB7698320919A03222340
:10060000D1F020915904203240F021E030E0FC018B
:100610003383228380E090E015C080915A04E82F54
:10062000F0E0E556FC4F998190838F5F80935A04E8
:100630008093590405C061E0CE0101960E949F029B
:1006400081E090E00F90DF91CF910895FC01EB5E87
:10065000FE4F80819181DC01ED91FC910284F38554
:10066000E02D0994FC01EB5EFE4F80819181DC015D
:10067000ED91FC910084F185E02D0994FC01EB5E85
:10068000FE4F80819181DC01ED91FC910680F78124
:10069000E02D0994FC01EB5EFE4F80819181DC012D
:1006A000ED91FC910190F081E02D0994FC01EB5E4D
:1006B000FE4F80819181DC01ED91FC910480F581F8
:1006C000E02D0994FC01808191810C943A1BE998FA
:1006D00083EC90E0909308018093070181E0809380
:1006E000150368EE73E080E090E00C94350F809184
:1006F00013039091140301969093140380931303B2
:1007000064E670E080E090E00E94350F82E00E9495
:10071000890E892BD9F30895EF92FF920F931F93BF
:10072000CF93DF93EC017B018A0188819981009747
:1007300029F02A813B8124173507F8F4B8016F5F4F
:100740007F4F0E944B1F009759F0998388831B832A
:100750000A832C813D81232B81F4FC0110820DC082
:1007600088819981009711F00E943A1B19821882A2
:100770001D821C821B821A8207C01D830C83B70155
:10078000888199810E943720CE01DF91CF911F91FE
:100790000F91FF90EF9008951F920F920FB60F9256
:1007A00011242F933F934F935F936F937F938F9376
:1007B0009F93AF93BF93EF93FF93E0910701F09165
:1007C00008010995FF91EF91BF91AF919F918F9192
:1007D0007F916F915F914F913F912F910F900FBE3D
:1007E0000F901F9018951F920F920FB60F92112421
:1007F0002F933F934F935F936F937F938F939F9329
:10080000AF93BF93EF93FF93E0910501F091060141
:100810000995FF91EF91BF91AF919F918F917F913A
:100820006F915F914F913F912F910F900FBE0F905D
:100830001F901895EF92FF920F931F93CF93DF9322
:100840008C017B01C0E0D0E0F701EC0FFD1F64914B
:10085000662361F0D801ED91FC910190F081E02DCB
:10086000C8010995892B11F02196EECFCE01DF91B9
:10087000CF911F910F91FF90EF9008956115710531
:1008800079F0FB0101900020E9F73197AF01461B99
:10089000570BDC01ED91FC910280F381E02D09946E
:1008A00080E090E0089562EA71E00C943E040F93BA
:1008B0001F93CF93DF93EC010E943E048C01CE0185
:1008C0000E945304800F911FDF91CF911F910F91D0
:1008D00008951F920F920FB60F9211242F933F93FA
:1008E0004F935F936F937F938F939F93AF93BF9338
:1008F000EF93FF938CEB93E00E942701FF91EF9120
:10090000BF91AF919F918F917F916F915F914F9127
:100910003F912F910F900FBE0F901F9018951F922F
:100920000F920FB60F9211242F938F939F93EF93F3
:10093000FF93E091CC03F091CD038081E091D2034D
:10094000F091D30382FD12C090818091D5038F5F17
:100950008F732091D603821751F0E091D503F0E018
:10096000E454FC4F958F8093D50301C08081FF91A3
:10097000EF919F918F912F910F900FBE0F901F902D
:1009800018954F925F926F927F928F929F92AF9243
:10099000BF92CF92DF92EF92FF920F931F93CF936C
:1009A000DF9381E080939A0388E68093BB031092E3
:1009B0005A041092590460E08DE594E00E94F70219
:1009C00081E00E943A118111D8C067E088E60E9458
:1009D000B11110925C0480935B048DE594E00E9459
:1009E00079028F770E94BB01582E8DE594E00E941A
:1009F00079020E94BB01682E8DE594E00E94790285
:100A00008F7B0E94BB01782E8DE594E00E947902D5
:100A10008DE594E00E9479020E94BB01482E8DE58D
:100A200094E00E9479028F770E94BB01082F8DE528
:100A300094E00E9479020E94BB01EEE1E80FAE2F24
:100A4000B0E020E833E341EE51E00E947A1D4B0113
:100A50005C0122EB37E0FD01C4E6D0E080E9E82E3E
:100A6000FF24F394C901825B97408E179F07DCF443
:100A7000C90183709927892B99F4C901BE010E948D
:100A8000161F892B31F4C901B7010E94161F892B4B
:100A900039F480E8880E81E5981E81E0A81EB11C1B
:100AA0002F5F3F4FDFCFEE54F84FCF0164E670E089
:100AB0000E94161F7C01CF0160E971E00E94161FA1
:100AC0006C01C1E0D0E010E0E370FF27C017D10750
:100AD00024F5C230D10581F4309771F4E114F104AA
:100AE00019F4C114D10441F480E8880E8BE3981EF8
:100AF00086E2A81EB11C0FC0DE01AB5ABE4FAC91FE
:100B0000B0E020E831E541E050E00E947A1D860E19
:100B1000971EA81EB91E2196D9CF272D30E0A0E13F
:100B2000BEE00E94E61D6B017C01262D30E0ACE3A7
:100B3000B0E00E94E61DDC01CB018C0D9D1DAE1DB9
:100B4000BF1D6C017D01C50CD11CE11CF11CA42D45
:100B5000B0E0119720E831E541E050E00E94851DAA
:100B6000DC01CB018C0D9D1DAE1DBF1DBC01CD0157
:100B7000680D791D8A1D9B1D03C060E070E0CB01EC
:100B8000DF91CF911F910F91FF90EF90DF90CF9069
:100B9000BF90AF909F908F907F906F905F904F909D
:100BA00008951F920F920FB60F9211242F933F9327
:100BB0004F935F936F937F938F939F93AF93BF9365
:100BC000EF93FF93E091FF02F0910003309709F457
:100BD00051C0968DA685B785858591FF04C09C91EF
:100BE000892329F447C09C91892309F043C0A38934
:100BF000B4899C918589809589238C93868997896E
:100C00000197F1F7608D718DA685B785558538E020
:100C100020E0CB010197F1F7822F90E09595879521
:100C2000282F4C91452309F02068315091F7868D8B
:100C300081FD20958091FE0290E001968F739927A7
:100C40003091FD02381749F0A091FE02B0E0A354A4
:100C5000BD4F2C938093FE0203C0868D8160868FEA
:100C6000828D938D0197F1F7A389B4899C91858931
:100C7000892B8C93FF91EF91BF91AF919F918F91B1
:100C80007F916F915F914F913F912F910F900FBE88
:100C90000F901F901895E091FF02F0910003E81764
:100CA000F90769F4A389B4899C9185898095892382
:100CB0008C93109200031092FF0281E0089580E06F
:100CC00008951F920F920FB60F9211242F933F9306
:100CD0004F935F936F937F938F939F93AF93BF9344
:100CE000EF93FF938091B900887F803609F49CC010
:100CF00068F5883209F45BC090F4803109F454C07F
:100D000038F4882309F4F6C0883009F44DC0F6C0E1
:100D1000883109F44CC0803209F45DC0EFC08034E2
:100D200009F468C048F4803309F455C0883309F0E9
:100D3000E5C080939703D8C0803509F44FC088354B
:100D400009F45DC0883409F0D9C0D6C0883909F4E7
:100D5000C7C0A8F4883709F467C038F4883609F4A6
:100D600063C0803709F460C0C9C0883809F4B8C0CE
:100D7000803909F45FC0803809F0C0C05BC0803B97
:100D800009F486C038F4803A09F466C0883A09F458
:100D90007FC0B4C0803C09F4A7C0883C09F4A4C05B
:100DA000883B09F48AC0AAC08091740310C0909156
:100DB000960380919503981770F5E091960381E072
:100DC0008E0F80939603F0E0EB58FC4F8081809368
:100DD000BB0085EC86C0809397038EC0E09196039C
:100DE00081E08E0F809396038091BB00F0E0EB587A
:100DF000FC4F808390919603809195036EC0E091A3
:100E0000960381E08E0F809396038091BB00F0E003
:100E1000EB58FC4F80838091980381116DC081E075
:100E20008093730384EA61C083E0809399031092F6
:100E3000BC02CFCF8091BC02803208F051C0E0915B
:100E4000BC0281E08E0F8093BC028091BB00F0E079
:100E5000E456FD4F8083BDCF85EC8093BC0010929B
:100E600099038091BC02803230F4E091BC02F0E042
:100E7000E456FD4F10826091BC0270E0E0919A024E
:100E8000F0919B028CE992E009951092BC0236C069
:100E900084E0809399031092990210929802E09155
:100EA0009602F0919702099580919802811105C0F0
:100EB00081E08093980210927602E091990281E09D
:100EC0008E0F80939902F0E0EA58FD4F8081809365
:100ED000BB009091990280919802981708F479CFFD
:100EE00085E88093BC000AC085EC8093BC0010921A
:100EF000990304C0109297030E949502FF91EF910D
:100F0000BF91AF919F918F917F916F915F914F9121
:100F10003F912F910F900FBE0F901F901895109238
:100F2000990381E0809398031092730361E082E15A
:100F30000E94B20E61E083E10E94B20EE9EBF0E0A4
:100F400080818E7F808380818D7F808380E280930B
:100F5000B80085E48093BC0008958F929F92AF9271
:100F6000BF92CF92DF92EF92FF920F931F93CF9396
:100F7000DF936C010E94C104609303037093040328
:100F8000809305039093060360910303709104031B
:100F900080910503909106030E94350D03E413E050
:100FA000D8011696CC911697D0E06E971296FC90C9
:100FB0001297F601EE0FFF1FEE0FFF1FE95FFC4FC8
:100FC00015968C91A82FB0E020E031EE45EF55E06A
:100FD0000E947A1D4B015C01D80114968C91A82FB8
:100FE000B0E020E432E44FE050E00E947A1DAB0113
:100FF000BC01480D591D6A1D7B1DD80111968C91AD
:10100000480F511D611D711DB4E6FB9EC0011124E6
:10101000092E000CAA0BBB0B6A017B01C80ED91E5E
:10102000EA1EFB1E20E137E2DE010E942A1FC60EE7
:10103000D71EE81EF91EC082D182E282F382DF91C0
:10104000CF911F910F91FF90EF90DF90CF90BF90C5
:10105000AF909F908F9008958F929F92AF92BF9282
:10106000CF92DF92EF92FF924C010E946F0F60933C
:101070007202709373028093740290937502A12C94
:10108000B12CC0907202D0907302E0907402F09084
:101090007502C80CD91CEA1CFB1C0E946F0FC616F7
:1010A000D706E806F90668F7FF90EF90DF90CF903B
:1010B000BF90AF909F908F900895CF92DF92EF9264
:1010C000FF920F931F93CF93DF93CDB7DEB7CD542D
:1010D000D1090FB6F894DEBF0FBECDBF8E010F5FF2
:1010E0001F4F80E4F80111928A95E9F7C8010E9428
:1010F000240C882309F457C123961FAE1EAE2397F4
:1011000025961FAE1EAE259727961FAE1EAE2797BB
:10111000F80101900020E9F73197AF01401B510B16
:10112000B801CE018F5B9F4F0E948C0323E030E01B
:1011300041E050E0BE016F5B7F4FCE01895B9F4F66
:101140000E94410BCE01895B9F4F0E94360BCE015E
:10115000895B9F4F2E966FAF2E970E9462032E964B
:101160006FAD2E97625E6093490326E030E044E065
:1011700050E0BE016F5B7F4FCE01895B9F4F0E94A5
:10118000410BCE01895B9F4F0E94360B6093480351
:10119000CE01895B9F4F0E94620329E030E047E067
:1011A00050E0BE016F5B7F4FCE01895B9F4F0E9475
:1011B000410BCE01895B9F4F0E94360B6093470322
:1011C000CE01895B9F4F0E946203109246032CE080
:1011D00030E04AE050E0BE016F5B7F4FCE01895B9B
:1011E0009F4F0E94410BCE01895B9F4F0E94360B9F
:1011F00060934503CE01895B9F4F0E9462032FE0FD
:1012000030E04DE050E0BE016F5B7F4FCE01895B67
:101210009F4F0E94410BCE01895B9F4F0E94360B6E
:1012200060934403CE01895B9F4F0E94620322E1D9
:1012300030E040E150E0BE016F5B7F4FCE01895B43
:101240009F4F0E94410BCE01895B9F4F0E94360B3E
:1012500060934303CE01895B9F4F0E94620381E04C
:1012600080939A0388E68093BB0310925A041092ED
:10127000590460E08DE594E00E94F7022091430359
:101280001AE0822F612F0E940A1F682F660F860FB7
:10129000682F660F620F8DE594E00E94F70220919F
:1012A0004403822F612F0E940A1F682F660F860F4A
:1012B000682F660F620F8DE594E00E94F70220917F
:1012C0004503822F612F0E940A1F682F660F860F29
:1012D000682F660F620F8DE594E00E94F70260911F
:1012E00046038DE594E00E94F70220914703822F88
:1012F000612F0E940A1F682F660F860F682F660FE6
:10130000620F8DE594E00E94F70220914803822F3E
:10131000612F0E940A1F682F660F860F682F660FC5
:10132000620F8DE594E00E94F702209149032E514F
:10133000822F612F0E940A1F682F660F680F660FA9
:10134000620F8DE594E00E94F70281E00E943A115D
:101350008FE00E94FF0B682F6F778FE00E9497113C
:1013600010924903109248031092470310924603CB
:10137000109245031092440310924303CE018F5BF9
:101380009F4F0E946203C35BDF4F0FB6F894DEBF2E
:101390000FBECDBFDF91CF911F910F91FF90EF90C6
:1013A000DF90CF9008950E946F0F6B017C0188EE53
:1013B00093E00E942C08F8EACF0EF1E6DF1EE11C54
:1013C000F11CC8010E94240C811196CEC8010E9414
:1013D000240C811191CE0E946F0FC616D706E80625
:1013E000F90678F789CECF92DF92EF92FF920E94B2
:1013F0006F0F6B017C0120E1C20E27E2D21EE11CBF
:10140000F11C0E949A10813021F40E949A108530BC
:10141000A1F068EE73E080E090E00E94350F0E943A
:101420009A10813021F00E949A10853041F464EFC7
:1014300071E080E090E00E94350F80E014C064EF1E
:1014400071E080E090E00E94350F0E946F0F6C15F4
:101450007D058E059F05A8F264EF71E080E090E0C5
:101460000E94350F81E0FF90EF90DF90CF900895BC
:10147000CF92DF92EF92FF928AE00E94890E892B31
:10148000E9F060E089E00E94B20E0E946F0F6B01EC
:101490007C0120EDC20E27E0D21EE11CF11C0E944F
:1014A0006F0FC616D706E806F906C8F761E089E0AF
:1014B000FF90EF90DF90CF900C94B20EFF90EF90E2
:1014C000DF90CF900895CF92DF92EF92FF928AE063
:1014D0000E94890E892B09F560E089E00E94B20E16
:1014E0000E946F0F6B017C0120EDC20E27E0D21E1F
:1014F000E11CF11C0E946F0FC616D706E806F9061C
:10150000C8F761E089E00E94B20E80E197E2FF90A7
:10151000EF90DF90CF900C942C08FF90EF90DF902D
:10152000CF9008957F928F929F92AF92BF92CF9269
:10153000DF92EF92FF920F931F93CF93DF93CDB77C
:10154000DEB72C970FB6F894DEBF0FBECDBF01E01B
:1015500010E08CE0E82E90E3D92E24E6C22E3AE08B
:10156000732EF02E80910103909102038017910752
:101570000CF458C0E1EBF1E0DE0111968E2D0190E4
:101580000D928A95E1F7D9868F2D6C2D0E940A1F46
:10159000892F672D0E940A1F805D8A87905D9B8737
:1015A000BE016F5F7F4F80917F05909180050E9403
:1015B000570480917F05909180050E94530488EB29
:1015C0009BE00E942C08802F0E94F810882331F0A5
:1015D0000F5F1F4F0F31110521F624C088EE93E0F5
:1015E0000E942C080E946F0F4B015C0128E8820EBC
:1015F00023E1921EA11CB11C8F2D0E94F8108111B5
:10160000E7CF88EE93E00E942C088F2D0E94F810FF
:101610008111DECF0E946F0F86169706A806B906C5
:1016200058F7D6CF65EA71E080917F0590918005EB
:101630000E94570410920203109201030E94380A7C
:101640002C960FB6F894DEBF0FBECDBFDF91CF91C1
:101650001F910F91FF90EF90DF90CF90BF90AF90D0
:101660009F908F907F9008950E941520FC018081AB
:101670009181009711F00C94F01B60E070E0CB01B9
:101680000895BF92CF92DF92EF92FF920F931F9334
:10169000CF93DF937C016B01EA01890124173507A1
:1016A00020F48D2FE901042F182FD70111961C92D9
:1016B0001E9213961C921E92129715961C921E92C1
:1016C000149740E050E064EA71E0C7010E948C0387
:1016D000F60184819581C817D907C0F58017910755
:1016E00008F48C01D601ED91FC911197E00FF11FE8
:1016F000B08010826D917C916C0F7D1F611571051A
:1017000061F0FB0101900020E9F73197AF01461B22
:10171000570BC7010E948C0313C0F7018081918190
:10172000009711F00E943A1BD70111961C921E924D
:1017300015961C921E92149713961C921E92129745
:10174000D601ED91FC91E00FF11FB082C701DF914E
:10175000CF911F910F91FF90EF90DF90CF90BF90AE
:101760000895833081F028F4813099F08230A1F01F
:1017700008958730A9F08830B9F08430D1F4809191
:1017800080008F7D03C0809180008F7780938000E0
:10179000089584B58F7702C084B58F7D84BD089588
:1017A0008091B0008F7703C08091B0008F7D8093CF
:1017B000B00008953FB7F89480914F039091500383
:1017C000A0915103B091520326B5A89B05C02F3FAD
:1017D00019F00196A11DB11D3FBFBA2FA92F982F57
:1017E0008827820F911DA11DB11DBC01CD0143E0D1
:1017F000660F771F881F991F4A95D1F70895CF93D9
:1018000091E090939A0398E69093BB0310925A0448
:1018100010925904682F8DE594E00E94F70281E050
:101820000E943A1181110DC061E088E60E94B11159
:1018300010925C0480935B048DE594E00E94790231
:10184000C82F8C2FCF9108950F931F93CF93DF93C1
:101850008C0160E177E28BEC90E00E945E1047E043
:1018600050E069E472E087E794E00E943E20892B13
:10187000F1F4EEE7F4E001900020E9F7EF01CF5733
:10188000D440C034D10510F0CFE3D0E0AE014F5FBB
:101890005F4F6EE774E0C8010E944C20C00FD11F5B
:1018A000188284EF91E00E94E50F81E001C080E0A2
:1018B000DF91CF911F910F910895CF93DF93EB01AB
:1018C00064EF71E00E945E10BE0187E794E00E9421
:1018D000171C21E0892B09F020E0822FDF91CF91A6
:1018E0000895CF93DF9300D0CDB7DEB76EEB70E0F5
:1018F00081EC90E00E945D0C811103C08FEF9FEF9F
:1019000016C064EF71E085EB90E00E945E1040E04D
:10191000BE016F5F7F4F88EA90E00E942B10882302
:1019200069F384EF91E00E94E50F89819A810F901D
:101930000F90DF91CF910895EF92FF920F931F9335
:10194000CF93DF93CDB7DEB76E970FB6F894DEBFB7
:101950000FBECDBF7C0144EF51E063E372E08DEB3D
:1019600091E00E94BB10882309F470C08AE0E8E38C
:10197000F1E08E010F5F1F4FD80101900D928A9503
:10198000E1F7FE013B9684E1DF011D928A95E9F7BC
:1019900043E150E069E071E0CE010A960E944C20DC
:1019A000F80101900020E9F7319782E2808344EF4B
:1019B00051E06BE572E0C8010E94BB10882309F476
:1019C00043C06BE572E08CEB93E00E943E04B701EC
:1019D0008CEB93E00E945704B70180917F059091B2
:1019E00080050E94570480917F05909180050E9498
:1019F000530480917F0590918005DC01ED91FC916D
:101A00000190F081E02D6AE1099566E372E08CEBCC
:101A100093E00E94570480E197E20E94E50F61E5A0
:101A200072E087E794E00E945B20892B69F088EEE2
:101A300093E00E94E50F63E372E087E794E00E9481
:101A40002E2021E0892B19F020E001C021E0822F17
:101A50006E960FB6F894DEBF0FBECDBFDF91CF916B
:101A60001F910F91FF90EF9008954F925F926F92A8
:101A70007F928F929F92CF92DF92EF92FF920F937D
:101A80001F93CF93DF932CE3C22ED12CE12CF12CAA
:101A9000A70196010E94C41D60934303CA01B901C6
:101AA000A70196010E94C41D60934403CA01B901B5
:101AB00028E130E040E050E00E94C41D29013A01D5
:101AC00060934503CA01B9016C5F7F4F8F4F9F4FF1
:101AD00027E030E040E050E00E94C41D6F5F60935B
:101AE0004603C12CD12C760120E004E610E030E959
:101AF000832E99249394E22FF0E0EE54F84FEF01F7
:101B0000C370DD27209789F4CF01B8010E94161F0A
:101B1000892B31F4CF01B4010E94161F892B29F4BF
:101B20008EE691E0A0E0B0E004C08DE691E0A0E098
:101B3000B0E0C80ED91EEA1EFB1ED701C601AA27B7
:101B4000BB27481659066A067B0610F02F5FD3CFD5
:101B500020934903209799F4CF0164E670E00E9436
:101B6000161F892B39F4CF0160E971E00E94161F1E
:101B7000892B29F48EE691E0A0E0B0E004C08DE668
:101B800091E0A0E0B0E0C81AD90AEA0AFB0A930182
:101B900082010C191D092E093F09CF0164E670E08E
:101BA0000E94161F7C01CF0160E971E00E94161FA0
:101BB000E6E5F1E0A0E0A13041F4209751F4E11412
:101BC000F10429F4009729F402C0408103C04DE1DB
:101BD00001C04CE150E060E070E0041715072607F3
:101BE000370740F0041B150B260B370BAF5F319600
:101BF000AC3009F7AF5FA09348030F5F0093470332
:101C0000DF91CF911F910F91FF90EF90DF90CF90D8
:101C10009F908F907F906F905F904F9008951F934B
:101C2000CF93DF931F92CDB7DEB7182F8EE0698375
:101C30000E94FF0B115021E030E001C0220F1A95E5
:101C4000EAF76981662319F0682F622B03C020959B
:101C5000682F62238EE00F90DF91CF911F910C943B
:101C600097111F93CF93DF93F82F562FAAE06A2F77
:101C70000E940A1F382F330F932F980F392F330FDD
:101C8000852F0E940A1FE82F880FE80FEE0F1E2FE6
:101C9000150F842F0E940A1F782F880F780F770F57
:101CA000D72FD40F822F0E940A1F582F880F580F4A
:101CB000550FC52FC20F632F6F0F87E00E9497113A
:101CC000612F88E00E9497116D2F89E00E94971183
:101CD0006C2F8AE0DF91CF911F910C949711CF93D5
:101CE000C82F8FE00E94FF0BC15021E030E001C0FF
:101CF000220FCA95EAF7982F922341F02095682F7A
:101D000062238FE00E94971181E001C080E0CF91B3
:101D10000895CF93DF93282F30E0F901EC56FF4F61
:101D20008491F901E65EFE4FD491F901EA5FFE4F1E
:101D3000C491CC2391F081110E94B10BEC2FF0E003
:101D4000EE0FFF1FE450FF4FA591B491EC91ED23EE
:101D500081E090E021F480E002C080E090E0DF913B
:101D6000CF9108951F93CF93DF93282F30E0F9018F
:101D7000EC56FF4F8491F901E65EFE4FD491F901D4
:101D8000EA5FFE4FC491CC23C9F0162F81110E9447
:101D9000B10BEC2FF0E0EE0FFF1FEE50FF4FA591BF
:101DA000B4918FB7F894111105C09C91ED2FE09577
:101DB000E92302C0EC91ED2BEC938FBFDF91CF9123
:101DC0001F910895CF93DF9390E0FC01E65EFE4FF4
:101DD0002491FC01EA5FFE4F8491882361F190E039
:101DE000880F991FFC01E657FF4FC591D491FC0164
:101DF000EE50FF4FA591B491611109C09FB7F894BF
:101E00008881209582238883EC912E230BC0623039
:101E100061F49FB7F8943881822F8095832388835B
:101E2000EC912E2B2C939FBF06C08FB7F894E881BE
:101E30002E2B28838FBFDF91CF9108958E3008F02D
:101E40008E508770806480937C0080917A008064DB
:101E500080937A0080917A0086FDFCCF8091780093
:101E60002091790090E0922B08958F929F92AF92EB
:101E7000BF92CF92DF92EF92FF926B017C010E94A2
:101E8000DA0B4B015C01C114D104E104F104F1F05F
:101E90000E94DA0BDC01CB0188199909AA09BB0958
:101EA000883E9340A105B10570F321E0C21AD10824
:101EB000E108F10888EE880E83E0981EA11CB11C91
:101EC000C114D104E104F10419F7DDCFFF90EF90C4
:101ED000DF90CF90BF90AF909F908F9008952FB7D5
:101EE000F89460914B0370914C0380914D03909155
:101EF0004E032FBF08951F920F920FB60F92112419
:101F00002F933F938F939F93AF93BF9380914B03F6
:101F100090914C03A0914D03B0914E0330914A0330
:101F200026E0230F2D3720F40296A11DB11D05C018
:101F300029E8230F0396A11DB11D20934A03809326
:101F40004B0390934C03A0934D03B0934E038091A9
:101F50004F0390915003A0915103B0915203019609
:101F6000A11DB11D80934F0390935003A093510383
:101F7000B0935203BF91AF919F918F913F912F9159
:101F80000F900FBE0F901F901895CF93DF93C0E076
:101F9000D0E0CE010196A897A8F4EC018AE694E07F
:101FA0000E945603892B39F08AE694E00E943E0392
:101FB000C0E0D0E0F3CF61E070E080E090E00E940C
:101FC000350FE7CFDF91CF9108950F931F93CF93F4
:101FD000DF938C01C0E0D0E00115110591F1CE3FF7
:101FE000D10578F580917F0590918005DC01ED9118
:101FF000FC910480F581E02D0995892BC1F0809139
:102000007F0590918005DC01ED91FC910680F781C0
:10201000E02D09958D3031F38A3019F4209711F3B2
:1020200010C0FE01E659FB4F85872196DBCF01509A
:10203000110939F061E070E080E090E00E94350F16
:10204000CBCFFE01E659FB4F15868C2FDF91CF9148
:102050001F910F910895DF92EF92FF920F931F93BC
:10206000CF93DF938C017B01D42EBC0187E794E0F2
:102070000E94291CEC01892BC1F0C8010E94201C80
:102080008C0F9D1FC0E0CD1549F06CE270E00E94FE
:102090002320009751F00196CF5FF5CF0E94D21B0D
:1020A000F7019183808381E001C080E0DF91CF91CF
:1020B0001F910F91FF90EF90DF900895EF92FF92A4
:1020C0000F931F93CF93DF938C017B010E94C50F69
:1020D00067E572E08CEB93E00E943E04B8018CEB64
:1020E00093E00E941A048CEB93E00E945304C09189
:1020F0007F05D0918005B801CE010E941A04CE015F
:102100000E945304C7010E94E50FC82F6EE572E0DC
:102110008CEB93E00E943E0467E774E08CEB93E065
:102120000E9457048C2FDF91CF911F910F91FF9048
:10213000EF900895CF93DF9300D0CDB7DEB764EF73
:1021400071E08CED90E00E945E1041E0BE016F5F97
:102150007F4F84ED90E00E942B10882331F084EFB4
:1021600091E00E94E50F898101C080E00F900F90FF
:10217000DF91CF910895EF92FF920F931F93CF932A
:10218000DF93EC018B017A010E94C50F67E572E0D5
:102190008CEB93E00E943E04BE018CEB93E00E9426
:1021A0005704BE0180917F05909180050E945704DD
:1021B000C7010E94E50F6EE572E08CEB93E00E9490
:1021C0003E0467E774E08CEB93E00E945704B8018B
:1021D00087E794E00E942E2021E0892B09F020E07F
:1021E000822FDF91CF911F910F91FF90EF90089573
:1021F0001F93CF93DF93CDB7DEB72C970FB6F8942C
:10220000DEBF0FBECDBF182F44EF51E063E372E095
:102210008DEB91E00E94BB10882309F19CE0E5E67C
:10222000F2E0DE01119601900D929A95E1F7812F6F
:1022300064E60E940A1F20E3280F2987892F6AE09D
:102240000E940A1F805D8A87905D9B8740ED57E062
:1022500063E372E0CE0101960E94BB1001C081E0F1
:102260002C960FB6F894DEBF0FBECDBFDF91CF9195
:102270001F910895382F209159049091BB0321326A
:1022800008F049C0809199038111FCCF42E040934E
:102290009903309398033FEF30939703109296037E
:1022A00020939503ABE9B3E045E753E0FA013E2FF5
:1022B000341B321718F43D913193F9CF1092740307
:1022C00020917403990F922B909374039091730350
:1022D000913061F410927303909174039093BB005A
:1022E0009091BC0093FDF8CF95EC01C095EE9093D2
:1022F000BC00909199039230E1F3909197039F3F36
:1023000079F080919703803241F080919703803378
:1023100031F084E005C081E003C082E001C083E0C9
:1023200010925A041092590410929A030895CF9370
:10233000C62F91E090939A0398E69093BB03109276
:102340005A0410925904682F8DE594E00E94F70218
:102350006C2F8DE594E00E94F70281E0CF910C9400
:102360003A11909199039111FCCF91E090939903C8
:10237000909398032FEF2093970310929603260FC4
:10238000209395039093740390917403880F892B85
:102390008093740380917303813061F4109273030E
:1023A000809174038093BB008091BC0083FDF8CFC3
:1023B00085EC01C085EE8093BC008091990381304B
:1023C000E1F380919603861710F460919603A5E7D8
:1023D000B3E023E533E0F9018E2F821B861718F452
:1023E0008D918193F9CF862F089586E991E090939E
:1023F00082058093810581E895E00C944B06CF938C
:10240000DF93CDB7DEB7CF57D1090FB6F894DEBF53
:102410000FBECDBF789484B5826084BD84B58160E1
:1024200084BD85B5826085BD85B5816085BD80919F
:102430006E00816080936E00109281008091810017
:10244000826080938100809181008160809381000F
:10245000809180008160809380008091B1008460D1
:102460008093B1008091B00081608093B000809132
:102470007A00846080937A0080917A0082608093F1
:102480007A0080917A008E7F80937A0080917A0022
:10249000806880937A001092C10060E081E10E9420
:1024A000E20E60E08FE00E94E20E60E080E10E94B8
:1024B000E20E61E08CE00E94E20E61E08DE00E949D
:1024C000E20E61E089E00E94E20E61E089E00E9494
:1024D000B20E60E08AE00E94E20E61E08AE00E94B3
:1024E000B20E60E082E00E94E20E61E082E00E94B3
:1024F000B20E60E083E00E94E20E61E083E00E94A1
:10250000B20E0E94630AE091CC03F091CD0382E009
:102510008083E091C803F091C9031082E091CA035F
:10252000F091CB0383E380831092D403E091D00336
:10253000F091D10386E08083E091CE03F091CF0348
:10254000808180618083E091CE03F091CF03808110
:1025500088608083E091CE03F091CF038081806812
:102560008083E091CE03F091CF0380818F7D8083C3
:1025700010929C0510929B0510929A051092990555
:10258000109298051092970585E690E090939E052D
:1025900080939D0590918D05963108F057C021E2FA
:1025A00030E0309398052093970523E630E0309390
:1025B0009A052093990522E430E030939C052093FE
:1025C0009B0520916800983050F031E09E3008F46F
:1025D00030E081E001C0880F3A95EAF701C084E05D
:1025E000822B80936800983038F09E3040F096310E
:1025F00048F020E030E008C02DE630E005C02BE6D2
:1026000030E002C02CE630E030939505209394052D
:10261000983030F481E001C0880F9A95EAF70EC037
:10262000292F30E09E3018F42850310902C02E5076
:10263000310981E001C0880F2A95EAF78093960559
:1026400080919D0590919E050197F1F780919B05E2
:1026500090919C05892B21F18091FF0290910003BC
:1026600025E081389207E1F0009711F00E944B06B7
:1026700080919F058E7F80939F051092FE0210929D
:10268000FD0281E895E0909300038093FF02E091C2
:102690009405F0919505908180919605892B808312
:1026A00081E895E09093800580937F0561E08091BB
:1026B00076040E94E20E61E0809176040E94B20EE0
:1026C0006AE070E080E090E00E94350F60E0809169
:1026D00076040E94B20E64E670E080E090E00E9412
:1026E000350F61E0809176040E94B20E68EB7BE0CA
:1026F00080E090E00E94350F80917F0590918005E9
:10270000DC01ED91FC910480F581E02D0995892B88
:1027100061F080917F0590918005DC01ED91FC9145
:102720000680F781E02D0995E7CF64E870E087E83F
:1027300090E00E945D0C64E670E080E090E00E9412
:10274000350F6EE770E081E890E00E945D0C64E672
:1027500070E080E090E00E94350F68E770E08BE762
:1027600090E00E945D0C64E670E080E090E00E94E2
:10277000350F60E770E083E790E00E945D0C64E64F
:1027800070E080E090E00E94350F68E670E08BE634
:1027900090E00E945D0C0E94F3098093040188235D
:1027A00071F00E94380A80ED97E00E942C080E9488
:1027B000630A0E94F3098093040181118CC06DEBC0
:1027C00071E080917F05909180050E94570488EE0A
:1027D00093E00E942C0867EC71E080917F05909156
:1027E00080050E94570488EE93E00E942C0869ED52
:1027F00071E080917F05909180050E94570488EEDA
:1028000093E00E942C0865EA71E080917F05909129
:1028100080050E94570480ED97E00E942C0863EE2B
:1028200071E080917F05909180050E94570488EEA9
:1028300093E00E942C080E945D0888EE93E00E94BD
:102840002C0887E793E0909306018093050180911F
:1028500069008C7F80936900E89A60E081E00E94C3
:102860000F0E81E00E946F0E60E082E00E940F0E6A
:1028700082E00E946F0E0E94C10460930303709374
:102880000403809305039093060360910303709102
:10289000040380910503909106030E94350D8E017B
:1028A0000F5F1F4F8BE4F80111928A95E9F70E94A0
:1028B0006F0F6B017C010E94710C18161906C4F48D
:1028C00088EE93E00E942C080E94710C9093020302
:1028D000809301030DC00E94380A80ED97E00E94AA
:1028E0002C080E94630A0E94F3098093040167CFB9
:1028F000809101039091020397FD6AC080E090E00F
:102900000E94AD07409100015091010160910201C8
:10291000709103014D595F4F6F4F7F4F40930001FE
:102920005093010160930201709303011F921F9263
:102930001F921F921F921F921F921F9280910A0353
:102940008F93809109038F93809108038F938091D7
:1029500007038F937F936F935F934F9388EE91E07C
:102960009F938F931F930F930E9475208091000176
:1029700090910101A0910201B09103018356910948
:10298000A109B1098093000190930101A093020174
:10299000B0930301109207031092080310920903E9
:1029A00010920A03C8010E949C0C88EB9BE00E94D5
:1029B0002C0880910103909102030FB6F894DEBFBA
:1029C0000FBECDBF181619067CF50E94920A2CC0C6
:1029D0000E94710C90930203809301038CED95E0AB
:1029E0000E942C0838E9C30E3AE3D31EE11CF11C07
:1029F000809101039091020397FF80CF8CED95E0C9
:102A00000E942C080E94710C909302038093010392
:102A10000E946F0FC616D706E806F90648F3109213
:102A2000020310920103E4CF88EB9BE00E942C0884
:102A30000E94C10460930303709304038093050311
:102A4000909306038091030390910403A0910503E2
:102A5000B0910603845D9E4FAF4FBF4F8093030339
:102A600090930403A0930503B093060360910303BE
:102A70007091040380910503909106030E94350D27
:102A800081E00E946F0E60E081E00E940F0E2091B5
:102A900047034091450360914403809143030E94A2
:102AA000310E61E081E00E940F0E87E693E0909383
:102AB00008018093070180916900837F80936900FA
:102AC000E99A0E94380A64E6862E912CA12CB12C3A
:102AD000CE0101962C011E019CE4290E311CD1016E
:102AE0001A96EF96BFAFAEAFEF9768EE73E080E057
:102AF00090E00E94350F80911503882309F4CBC321
:102B000081E00E946F0E882309F4C5C3E090410361
:102B1000F0904203C7010E94AD0761E08CE00E9483
:102B2000B20E61E08DE00E94B20E64EF71E080E0D1
:102B300090E00E94350F80E10E941E0F64EF71E06B
:102B400080E090E00E94350F80E10E941E0F8C0112
:102B500064E670E080E090E00E94350F9801A4EEFA
:102B6000BCE00E94E61D2FEF33E040E050E00E9401
:102B70005B1DB90180E090E00E94601C20E030E025
:102B800040E251E40E94621E20E030E048E452E45A
:102B90000E94F51D20E030E040E151E40E949D1CC0
:102BA00020E030E040EA50E40E94621E20E030E085
:102BB00040E052E40E94F61D6093160370931703E1
:102BC00080931803909319038701000F111FF801D8
:102BD000E75DFC4F6F010E94D41ED6016D937C937C
:102BE000F801E15DFC4F1182108268EE73E080E035
:102BF00090E00E94350F81E10E941E0F64EF71E0AA
:102C000080E090E00E94350F81E10E941E0F3C01A0
:102C1000F801ED5DFC4F6F019183808364E670E005
:102C200080E090E00E94350FFBE96F16710428F4F4
:102C30008BE990E0D6018D939C93F801ED5DFC4FFC
:102C40006F0120813181C901A0E0B0E09C01AD019C
:102C50002B59310941095109ABE8B4E00E947A1DB2
:102C60002CE632E040E050E00E945B1DD6012D933F
:102C70003C9360E08CE00E94B20E60E08DE00E9428
:102C8000B20E64EF71E080E090E00E94350F82E1C7
:102C90000E94FF0BEA968FAFEA9781E10E94FF0B3B
:102CA000EB968FAFEB97EB966EAC7FACEB9746E075
:102CB000759467944A95E1F764EF71E080E090E0E5
:102CC0000E94350FB30180E090E00E94601C20E07C
:102CD00030E040E85EE30E949D1C20E030E040E1EF
:102CE00051E40E949D1C20E030E040EA50E40E9444
:102CF000621E20E030E040E052E40E94F61D609346
:102D000016037093170380931803909319030E947E
:102D1000D41EF801E65EFC4F718360836091000170
:102D2000709101018091020190910301A50194012C
:102D30000E94C41D243F314044F0F801E75DFC4F80
:102D400011821082F60111821082809113039091FA
:102D50001403F801E55CFC4F918380831092140307
:102D600010921303FFEFEF1AFF0AF0924203E09272
:102D7000410323E0E216F1040CF066C00E94C10496
:102D800060930303709304038093050390930603F9
:102D90008091030390910403A0910503B091060371
:102DA000845D9E4FAF4FBF4F809303039093040306
:102DB000A0930503B093060360910303709104038D
:102DC00080910503909106030E94350D81E00E94D9
:102DD0006F0E60E081E00E940F0E6091030370911E
:102DE000040380910503909106030E94350D60ED68
:102DF00077E080E090E00E94350F209147034091FA
:102E0000450360914403809143030E94310E61E0C9
:102E100081E00E940F0E87E693E090930801809373
:102E2000070180916900837F80936900E99A60E0DF
:102E30008DE00E94B20E68EE73E080E090E00E94A8
:102E4000350F1092150327C28AE193E0AC969FAF2D
:102E50008EAFAC97A3E2B3E0E296BFAFAEAFE2971E
:102E6000E9E2F3E0E696FFAFEEAFE6972FE233E05C
:102E7000E9963FAF2EAFE99787E093E0E4969FAFE6
:102E80008EAFE4976C01E0963FAF2EAFE097AE9621
:102E9000FFAFEEAFAE9733E2632E33E0732E00E068
:102EA00010E09101275F3F4FED963FAF2EAFED97BA
:102EB00068EE73E080E090E00E94350F0115110587
:102EC00009F080C00E94630A0E94F3098093040104
:102ED00022E0E22EF12C809104018823F1F10E947E
:102EE000380A80ED97E00E942C080E94630A0E9435
:102EF000F309E7968FAFE7978093040164EF71E0E1
:102F000080E090E00E94350F609100017091010116
:102F10008091020190910301A50194010E94C41DBA
:102F2000D90124E630E00E942A1FDC01CB01E7969C
:102F30003FADE797830F911DA11DB11D8093000147
:102F400090930101A0930201B0930301EA94EF284A
:102F500019F1EE24E394F12CBECF64EF71E080E030
:102F600090E00E94350F6091000170910101809105
:102F7000020190910301A50194010E94C41DD90191
:102F800024E630E00E942A1F609300017093010143
:102F9000809302019093030168E873E180E090E080
:102FA0000E94350F80914903813110F40E945D0821
:102FB000809145038C3031F4809144038F3110F4BB
:102FC0000E945D08D201EBE41D92EA95E9F7AC9608
:102FD000EEADFFADAC97A081B1813296AC96FFAF5C
:102FE000EEAFAC97F30160817181F2E06F0E711C5E
:102FF000AE96EEADFFADAE97408151813296AE9662
:10300000FFAFEEAFAE97E096EEADFFADE09720815B
:1030100031813296E096FFAFEEAFE097F801EE0F08
:10302000FF1FE55CFC4F80819181F601F081E796FE
:10303000FFAFE797F601F181C158DF4FF883CF5713
:10304000D040F601F280E380F4E0CF0ED11CBF93B4
:10305000AF931F921F927F936F935F934F933F9312
:103060002F939F938F93EF92FF92C158DF4F288148
:10307000CF57D0402F93E7963FADE7973F9380918E
:1030800003018F93809102018F93809101018F93AF
:10309000809100018F93A8E0B2E0BF93AF935F925D
:1030A0004F920E9475200FB6F894DEBF0FBECDBFC1
:1030B00080910401882309F47BC044EF51E063E36D
:1030C00072E08DEB91E00E94BB10882309F464C08C
:1030D000EAE1F1E0D1018AE001900D928A95E1F7F1
:1030E000EF96AEADBFADEF97E4E11D92EA95E9F73B
:1030F00043E150E069E071E0ED968EAD9FADED9754
:103100000E944C20F10101900020E9F7319782E202
:10311000808344EF51E06BE572E0C1010E94BB1077
:103120008823D1F16BE572E08CEB93E00E943E04C2
:10313000B2018CEB93E00E945704B20180917F05AD
:10314000909180050E94570480917F0590918005A1
:103150000E94530480917F0590918005DC01ED91E0
:10316000FC910190F081E02D6AE1099566E372E03F
:103170008CEB93E00E94570480E197E20E94E50FF8
:1031800069E372E087E794E00E945B20892B21F0DD
:1031900088EE93E00E94E50F88EE93E00E942C08F1
:1031A00084EF91E00E942C080230110571F52BC0CC
:1031B000C2010E949C0C88EB9BE00E942C0888EEC8
:1031C00093E00E942C0802301105F9F40E94710C62
:1031D00097FF06C088EE93E00E942C080E94710CB5
:1031E0000E94710C1816190674F468EE73E080E002
:1031F00090E00E94350F0E94710C9093020380931F
:1032000001030E94920A0E94380A0F5F1F4F033089
:10321000110509F04DCE1092420310924103A5E32F
:10322000B3E080E090E01D921D92E996EEADFFAD17
:10323000E99711921192E996FFAFEEAFE997E69602
:10324000EEADFFADE69711921192E696FFAFEEAFAD
:10325000E697E496EEADFFADE497119211921192CC
:103260001192E496FFAFEEAFE497E296EEADFFADBC
:10327000E29711921192E296FFAFEEAFE297FC0156
:10328000EE0FFF1FE55CFC4F118210820196833028
:10329000910549F673CD8091A0059091A105009705
:1032A00011F484EA95E09201281B390B3093220334
:1032B000209321036FE372E08CEB93E00E943E04C5
:1032C000209121033091220340E050E019A28E01A9
:1032D0000F5D1F4FCA01B9012AE030E040E050E025
:1032E0000E94C41D605DD8016E938D0121153105CA
:1032F0004105510579F7BD018CEB93E00E943E0436
:103300008CEB93E00E9453049091200320911503CD
:1033100081E08227981788F483B7817F846083BF18
:1033200083B7816083BF83B7816083BF889583B78C
:103330008E7F83BF83B78E7F83BF0E94B101D5CBC1
:10334000CF92DF92EF92FF921092BF031092BE03D2
:1033500098EEC92E93E0D92EE12CF12CC092C00337
:10336000D092C103E092C203F092C30386E691E0DB
:103370009093BD038093BC0385EC90E09093C903C8
:103380008093C80384EC90E09093CB038093CA03AE
:1033900080EC90E09093CD038093CC0381EC90E09F
:1033A0009093CF038093CE0382EC90E09093D1036F
:1033B0008093D00386EC90E09093D3038093D20364
:1033C0001092D5031092D6031092D7031092D8030F
:1033D00010925C0410925B0410925A0410925904EB
:1033E0000E948F071092600410925F04C0926104E3
:1033F000D0926204E0926304F092640486E791E064
:1034000090935E0480935D0410928405109283056E
:10341000C0928505D0928605E0928705F0928805D6
:1034200086E991E09093820580938105109298053A
:103430001092970510929A051092990510929C058A
:1034400010929B0510929E0510929D0560919F051C
:103450006E7F6D7F60939F056695617081E0682740
:1034600085E00E94B20E61E085E00E94E20EEFE18D
:10347000F1E0E491E0939105EBE0F1E0E491F0E01C
:10348000EE0FFF1FEE50FF4F85919491909393059F
:103490008093920560E086E00E94E20E80919F0595
:1034A00081FD04C061E086E00E94B20E86E0809358
:1034B0008D05E0E2F1E0E491E0938E05ECE0F1E0CF
:1034C000E491F0E0EE0FFF1FE450FF4F85919491DF
:1034D0009093900580938F0510926D0410926C0468
:1034E00088EE93E0A0E0B0E080936E0490936F04C8
:1034F000A0937004B093710486E891E090936B04FC
:1035000080936A0487E0809376048AEE90E090933B
:1035100077058093760510927905109278051092C0
:103520007B0510927A051092800510927F0510920B
:103530007C0585EE90E090937E0580937D05FF905D
:10354000EF90DF90CF900C948F07CF93DF93823072
:10355000910510F482E090E0E091A205F091A305BE
:1035600020E030E0C0E0D0E0309711F1408151819F
:1035700048175907C0F04817590761F482819381B1
:10358000209719F09B838A832BC09093A305809387
:10359000A20526C02115310519F04217530718F46A
:1035A0009A01BE01DF01EF010280F381E02DDCCF43
:1035B0002115310509F1281B390B2430310590F410
:1035C00012968D919C9113976115710521F0FB0165
:1035D0009383828304C09093A3058093A205FD0189
:1035E000329644C0FD01E20FF31F81939193225064
:1035F00031092D933C933AC02091A0053091A1054B
:10360000232B41F420911601309117013093A1052D
:103610002093A00520911401309115012115310549
:1036200041F42DB73EB74091180150911901241B68
:10363000350BE091A005F091A105E217F307A0F486
:103640002E1B3F0B2817390778F0AC014E5F5F4FF8
:103650002417350748F04E0F5F1F5093A105409384
:10366000A0058193919302C0E0E0F0E0CF01DF91EB
:10367000CF9108950F931F93CF93DF93009709F491
:103680008CC0FC013297138212820091A205109126
:10369000A3050115110581F420813181820F931F4B
:1036A0002091A0053091A1052817390779F5F093ED
:1036B000A105E093A00571C0D80140E050E0AE172D
:1036C000BF0750F412962D913C911397AD0121152F
:1036D000310509F1D901F3CF9D01DA01338322834A
:1036E00060817181860F971F8217930769F4EC013F
:1036F00028813981260F371F2E5F3F4F318320836A
:103700008A819B8193838283452B29F4F093A305BF
:10371000E093A20542C01396FC93EE931297ED013D
:10372000499159919E01240F351FE217F30771F457
:1037300080819181840F951F029611969C938E93A0
:103740008281938113969C938E931297E0E0F0E030
:10375000D80112968D919C911397009719F0F8015A
:103760008C01F6CF8D919C9198012E5F3F4F820F77
:10377000931F2091A0053091A1052817390769F4FE
:10378000309729F41092A3051092A20502C013826B
:1037900012821093A1050093A005DF91CF911F9194
:1037A0000F910895FC0188279927E89421912032F0
:1037B000E9F3293010F02E30C8F32B3241F02D32CE
:1037C00039F4689404C00E94581C820F911D219105
:1037D00020532A30C0F31EF4909581959F4F089591
:1037E0001F93FC0199278827BC01E894119110329E
:1037F000E9F3193010F01E30C8F31B3251F01D32BE
:1038000049F4689406C00E94431C610F711D811D1C
:10381000911D119110531A30B0F33EF4909580959C
:10382000709561957F4F8F4F9F4F1F910895FB01BA
:10383000DC018D91059080190110D9F3990B089541
:10384000FC0105900020E9F7809590958E0F9F1F51
:103850000895FB0155915523A9F0BF01DC014D915D
:1038600045174111E1F759F4CD010590002049F0C9
:103870004D9140154111C9F3FB014111EFCF81E09A
:1038800090E001970895592F482F372F262F660F64
:10389000771F881F991F660F771F881F991F620F58
:1038A000731F841F951F660F771F881F991F089528
:1038B0007AE0979F902D879F802D910D1124089578
:1038C000E89409C097FB3EF49095809570956195BA
:1038D0007F4F8F4F9F4F9923A9F0F92F96E9BB2770
:1038E0009395F695879577956795B795F111F8CFEC
:1038F000FAF4BB0F11F460FF1BC06F5F7F4F8F4F57
:103900009F4F16C0882311F096E911C0772321F04C
:103910009EE8872F762F05C0662371F096E8862FE4
:1039200070E060E02AF09A95660F771F881FDAF73B
:10393000880F9695879597F908950E94B01C0C946E
:10394000211D0E94131D38F00E941A1D20F095239E
:1039500011F00C940A1D0C94101D11240C94551D8B
:103960000E94321D70F3959FC1F3950F50E0551FD3
:10397000629FF001729FBB27F00DB11D639FAA27C4
:10398000F00DB11DAA1F649F6627B00DA11D661F13
:10399000829F2227B00DA11D621F739FB00DA11D34
:1039A000621F839FA00D611D221F749F3327A00DEE
:1039B000611D231F849F600D211D822F762F6A2F8A
:1039C00011249F5750409AF0F1F088234AF0EE0FEF
:1039D000FF1FBB1F661F771F881F91505040A9F71C
:1039E0009E3F510580F00C940A1D0C94551D5F3FBD
:1039F000E4F3983ED4F3869577956795B795F79558
:103A0000E7959F5FC1F7FE2B880F911D96958795CF
:103A100097F9089597F99F6780E870E060E008954E
:103A20009FEF80EC089500240A94161617061806D6
:103A30000906089500240A941216130614060506B2
:103A40000895092E0394000C11F4882352F0BB0F43
:103A500040F4BF2B11F460FF04C06F5F7F4F8F4FA6
:103A60009F4F089557FD9058440F551F59F05F3FE1
:103A700071F04795880F97FB991F61F09F3F79F090
:103A800087950895121613061406551FF2CF469512
:103A9000F1DF08C0161617061806991FF1CF869594
:103AA0007105610508940895E894BB276627772778
:103AB000CB0197F90895052E97FB1EF400940E9400
:103AC000721D57FD07D00E94C41D07FC03D04EF4A1
:103AD0000C94721D50954095309521953F4F4F4F56
:103AE0005F4F089590958095709561957F4F8F4FAA
:103AF0009F4F08950E94E61DA59F900DB49F900DC5
:103B0000A49F800D911D11240895B7FF0C947A1D78
:103B10000E947A1D821B930B08952F923F924F9221
:103B20005F926F927F928F929F92AF92BF92CF924D
:103B3000DF92EF92FF920F931F93CF93DF93CDB756
:103B4000DEB7CA1BDB0B0FB6F894DEBF0FBECDBFCE
:103B500009942A88398848885F846E847D848C849F
:103B60009B84AA84B984C884DF80EE80FD800C81A8
:103B70001B81AA81B981CE0FD11D0FB6F894DEBF8B
:103B80000FBECDBFED010895A1E21A2EAA1BBB1BEB
:103B9000FD010DC0AA1FBB1FEE1FFF1FA217B30719
:103BA000E407F50720F0A21BB30BE40BF50B661F2F
:103BB000771F881F991F1A9469F7609570958095F3
:103BC00090959B01AC01BD01CF010895A29FB0016A
:103BD000B39FC001A39F700D811D1124911DB29F41
:103BE000700D811D1124911D08955058BB27AA27DF
:103BF0000E940D1E0C94211D0E94131D38F00E947E
:103C00001A1D20F039F49F3F19F426F40C94101D6E
:103C10000EF4E095E7FB0C940A1DE92F0E94321D7B
:103C200058F3BA17620773078407950720F079F4F1
:103C3000A6F50C94541D0EF4E0950B2EBA2FA02D72
:103C40000B01B90190010C01CA01A0011124FF2749
:103C5000591B99F0593F50F4503E68F11A16F04044
:103C6000A22F232F342F4427585FF3CF4695379543
:103C70002795A795F0405395C9F77EF41F16BA0B08
:103C8000620B730B840BBAF09150A1F0FF0FBB1FB6
:103C9000661F771F881FC2F70EC0BA0F621F731FFF
:103CA000841F48F4879577956795B795F7959E3F5C
:103CB00008F0B0CF9395880F08F09927EE0F9795ED
:103CC000879508950E94761E0C94211D0E941A1D4E
:103CD00058F00E94131D40F029F45F3F29F00C9426
:103CE0000A1D51110C94551D0C94101D0E94321D7B
:103CF00068F39923B1F3552391F3951B550BBB271B
:103D0000AA2762177307840738F09F5F5F4F220F5F
:103D1000331F441FAA1FA9F335D00E2E3AF0E0E856
:103D200032D091505040E695001CCAF72BD0FE2FA0
:103D300029D0660F771F881FBB1F26173707480734
:103D4000AB07B0E809F0BB0B802DBF01FF279358EC
:103D50005F4F3AF09E3F510578F00C940A1D0C9489
:103D6000551D5F3FE4F3983ED4F3869577956795AC
:103D7000B795F7959F5FC9F7880F911D9695879521
:103D800097F90895E1E0660F771F881FBB1F621740
:103D900073078407BA0720F0621B730B840BBA0BFE
:103DA000EE1F88F7E09508950E94DB1E6894B1111C
:103DB0000C94551D08950E943A1D88F09F5798F065
:103DC000B92F9927B751B0F0E1F0660F771F881F20
:103DD000991F1AF0BA95C9F714C0B13091F00E943A
:103DE000541DB1E008950C94541D672F782F882737
:103DF000B85F39F0B93FCCF3869577956795B39561
:103E0000D9F73EF490958095709561957F4F8F4FCF
:103E10009F4F0895991B79E004C0991F961708F0E9
:103E2000961B881F7A95C9F78095089597FB072EF2
:103E300016F4009407D077FD09D00E94311F07FCCB
:103E400005D03EF4909581959F4F089570956195AA
:103E50007F4F08950E94E61DB7FF0895821B930BC4
:103E60000895AA1BBB1B51E107C0AA1FBB1FA617C1
:103E7000B70710F0A61BB70B881F991F5A95A9F713
:103E800080959095BC01CD010895EE0FFF1F059020
:103E9000F491E02D0994A0E0B0E0E1E5FFE10C949D
:103EA000911DEC01009721F4CB010E94A51AB8C026
:103EB000FC01E60FF71F9C0122503109E217F307BE
:103EC00008F4ACC0D9010D911C9111970617170782
:103ED000B0F00530110508F49FC0C801049786179B
:103EE000970708F499C002501109061B170B01939C
:103EF00011936D937C93CF010E943A1B8DC05B019F
:103F0000A01AB10A4C01800E911EA091A205B09199
:103F1000A30540E050E0E12CF12C109709F44AC0D1
:103F2000A815B905D1F56D907C901197630182E0D9
:103F3000C80ED11CCA14DB0480F1A3014A195B0925
:103F40006A0182E0C80ED11C1296BC90129713969B
:103F5000AC91B5E0CB16D10440F0B282A38351837B
:103F60004083D9016D937C930AC00E5F1F4FC3013C
:103F7000800F911FF90191838083EB2DFA2FE114BB
:103F8000F10431F0D7011396FC93EE93129744C0DD
:103F9000F093A305E093A2053FC08D919C911197EA
:103FA0004817590708F4AC017D0112960D90BC9199
:103FB000A02DB3CF8091A0059091A10588159905FA
:103FC000E1F446175707C8F4809114019091150148
:103FD000009741F48DB79EB7409118015091190197
:103FE000841B950BE817F907C8F4F093A105E0933B
:103FF000A005F901718360830FC0CB010E94A51A4F
:104000007C01009759F0A801BE010E941A20CE0140
:104010000E943A1BC70104C0CE0102C080E090E0BC
:10402000CDB7DEB7EEE00C94AD1D81E090E0F894E2
:104030000C941623FB01DC0102C001900D9241504B
:104040005040D8F70895FC018191861721F088230C
:10405000D9F7992708953197CF010895FB01DC0125
:104060008D91019080190110D9F3990B0895FB01EE
:10407000DC0101900D920020E1F70895FB01DC01C5
:104080004150504030F08D910190801919F400207A
:10409000B9F7881B990B0895FB01DC014150504092
:1040A00048F001900D920020C9F701C01D924150C7
:1040B0005040E0F70895FB0151915523A9F0BF014D
:1040C000DC014D9145174111E1F759F4CD01019003
:1040D000002049F04D9140154111C9F3FB014111F8
:1040E000EFCF81E090E001970895AEE0B0E0EBE71C
:1040F000F0E20C949B1D0D891E8986E08C831A8347
:1041000009838FEF9FE79E838D83AE01475E5F4FEC
:104110006F89788DCE0101960E9498202F81388575
:10412000F801E20FF31F10822E96E4E00C94B71D05
:10413000ACE0B0E0EEE9F0E20C948D1D7C016B0187
:104140008A01FC0117821682838181FFBDC1CE01E5
:1041500001964C01F7019381F60193FD859193FF40
:1041600081916F01882309F4ABC1853239F493FD45
:10417000859193FF81916F01853229F4B70190E019
:104180000E948022E7CF512C312C20E02032A0F475
:104190008B3269F030F4803259F0833269F4206157
:1041A0002CC08D3239F0803339F4216026C0226072
:1041B000246023C0286021C027FD27C030ED380FC0
:1041C0003A3078F426FF06C0FAE05F9E300D1124E5
:1041D000532E13C08AE0389E300D1124332E2062F6
:1041E0000CC08E3221F426FD6BC1206406C08C36D3
:1041F00011F4206802C0883641F4F60193FD8591E0
:1042000093FF81916F018111C1CF982F9F7D9554AC
:10421000933028F40C5F1F4FFFE3F9830DC0833602
:1042200031F0833771F0833509F05BC022C0F801AB
:10423000808189830E5F1F4F44244394512C540185
:1042400015C03801F2E06F0E711CF801A080B1803A
:1042500026FF03C0652D70E002C06FEF7FEFC50140
:104260002C870E9475222C0183012C852F77222E0A
:1042700017C03801F2E06F0E711CF801A080B18008
:1042800026FF03C0652D70E002C06FEF7FEFC50110
:104290002C870E946A222C012C852068222E830103
:1042A00023FC1BC0832D90E048165906B0F4B701DB
:1042B00080E290E00E9480223A94F4CFF50127FC3E
:1042C000859127FE81915F01B70190E00E948022D5
:1042D00031103A94F1E04F1A51084114510471F72A
:1042E000E5C0843611F0893639F5F80127FF07C09B
:1042F00060817181828193810C5F1F4F08C0608152
:104300007181072E000C880B990B0E5F1F4F2F76C3
:10431000722E97FF09C090958095709561957F4F9B
:104320008F4F9F4F2068722E2AE030E0A4010E9438
:10433000B822A82EA81844C0853729F42F7EB22EA3
:104340002AE030E025C0F22FF97FBF2E8F36C1F072
:1043500018F4883579F0B4C0803719F0883721F027
:10436000AFC02F2F2061B22EB4FE0DC08B2D846004
:10437000B82E09C024FF0AC09F2F9660B92E06C030
:1043800028E030E005C020E130E002C020E132E06A
:10439000F801B7FE07C060817181828193810C5F53
:1043A0001F4F06C06081718180E090E00E5F1F4F5B
:1043B000A4010E94B822A82EA818FB2DFF777F2EFB
:1043C00076FE0BC0372D3E7FA51450F474FE0AC054
:1043D00072FC08C0372D3E7E05C0BA2C372D03C0B5
:1043E000BA2C01C0B52C34FF0DC0FE01EA0DF11D41
:1043F0008081803311F4397E09C032FF06C0B39446
:10440000B39404C0832F867809F0B39433FD13C0AE
:1044100030FF06C05A2CB31418F4530C5B18B32C9D
:10442000B31468F4B70180E290E03C870E948022D8
:10443000B3943C85F5CFB31410F43B1801C0312C74
:1044400034FF12C0B70180E390E03C870E948022D5
:104450003C8532FF17C031FD03C088E790E002C001
:1044600088E590E0B7010CC0832F867859F031FFC2
:1044700002C08BE201C080E237FD8DE2B70190E01F
:104480000E948022A51438F4B70180E390E00E94D6
:1044900080225A94F7CFAA94F401EA0DF11D80818D
:1044A000B70190E00E948022A110F5CF332009F4DB
:1044B00051CEB70180E290E00E9480223A94F6CF7C
:1044C000F7018681978102C08FEF9FEF2C96E2E182
:1044D0000C94A91DFC010590615070400110D8F7A3
:1044E000809590958E0F9F1F0895FC01615070403C
:1044F00001900110D8F7809590958E0F9F1F089519
:104500000F931F93CF93DF93FB01238121FD03C002
:104510008FEF9FEF28C022FF16C04681578124816C
:1045200035814217530744F4A081B1819D012F5F6B
:104530003F4F318320838C93268137812F5F3F4FFC
:104540003783268310C0EB01092F182F0084F185D3
:10455000E02D0995892BE1F68E819F8101969F833D
:104560008E83812F902FDF91CF911F910F9108950E
:10457000FA01AA27283051F1203181F1E8946F9394
:104580006E7F6E5F7F4F8F4F9F4FAF4FB1E03ED03A
:10459000B4E03CD0670F781F891F9A1FA11D680FD8
:1045A000791F8A1F911DA11D6A0F711D811D911D0B
:1045B000A11D20D009F468943F912AE0269F112480
:1045C0003019305D3193DEF6CF010895462F4770E4
:1045D000405D4193B3E00FD0C9F7F6CF462F4F703F
:1045E000405D4A3318F0495D31FD4052419302D09D
:1045F000A9F7EACFB4E0A695979587957795679543
:10460000BA95C9F700976105710508959B01AC0142
:104610000A2E06945795479537952795BA95C9F769
:10462000620F731F841F951FA01D089510E0C8E935
:10463000D0E004C0FE010E94451F2196C939D10770
:06464000C9F7F894FFCF5A
:10464600B004000001C300C30037303632353430C1
:10465600313032000000A405800041542B434D4701
:10466600573D22000000000000000000000000008E
:10467600000000000000000041542B434D47533D0D
:104686002200000000000000000000000000000002
:104696000000000000001F1C1F1E1F1E1F1F1E1FE4
:1046A6001E1F000000004801C4001101EF000301B5
:1046B6008F0100000000F702C7028D0279026A022C
:1046C6006902000000004A03C40056033E03320399
:1046D600260300000000DC01C40030024802C301CA
:1046E600DB010D0A0041542B434D47443D312C3428
:1046F6000041542B434D53533D3030300041542B31
:10470600434D47463D310041542B43504D533D22C6
:10471600534D222C22534D220041542B434C5453CB
:104726003D3100415426570025356C753A25303108
:10473600306C753A253034753A253034753A253063
:1047460034753A253034750025356C753A25303187
:10475600306C753A253034643A253034753A253054
:1047660034753A253034753A253034753A25303467
:10477600750A004F4B005E5A002B434D47570066A3
:1047860072656552616D3A20002B43434C4B3A20CB
:10479600002B434D475300092D2D2D3E2000093C8B
:1047A6002D2D2D200041542B434D47443D303030B4
:0247B600000001
:00000001FF
